{
  "contractName": "Swan",
  "abi": [
    {
      "inputs": [],
      "stateMutability": "nonpayable",
      "type": "constructor"
    },
    {
      "anonymous": false,
      "inputs": [
        {
          "indexed": false,
          "internalType": "address",
          "name": "seller",
          "type": "address"
        },
        {
          "indexed": false,
          "internalType": "address",
          "name": "tokenAddress",
          "type": "address"
        },
        {
          "indexed": false,
          "internalType": "uint256",
          "name": "tokenId",
          "type": "uint256"
        },
        {
          "indexed": false,
          "internalType": "uint256",
          "name": "listingId",
          "type": "uint256"
        }
      ],
      "name": "ListingCancelled",
      "type": "event"
    },
    {
      "anonymous": false,
      "inputs": [
        {
          "indexed": false,
          "internalType": "address",
          "name": "seller",
          "type": "address"
        },
        {
          "indexed": false,
          "internalType": "address",
          "name": "tokenAddress",
          "type": "address"
        },
        {
          "indexed": false,
          "internalType": "uint256",
          "name": "tokenId",
          "type": "uint256"
        },
        {
          "indexed": false,
          "internalType": "uint256",
          "name": "price",
          "type": "uint256"
        },
        {
          "indexed": false,
          "internalType": "uint256",
          "name": "listingId",
          "type": "uint256"
        }
      ],
      "name": "TokenListed",
      "type": "event"
    },
    {
      "anonymous": false,
      "inputs": [
        {
          "indexed": false,
          "internalType": "address",
          "name": "seller",
          "type": "address"
        },
        {
          "indexed": false,
          "internalType": "address",
          "name": "buyer",
          "type": "address"
        },
        {
          "indexed": false,
          "internalType": "address",
          "name": "tokenAddress",
          "type": "address"
        },
        {
          "indexed": false,
          "internalType": "uint256",
          "name": "tokenId",
          "type": "uint256"
        },
        {
          "indexed": false,
          "internalType": "uint256",
          "name": "price",
          "type": "uint256"
        },
        {
          "indexed": false,
          "internalType": "uint256",
          "name": "listingId",
          "type": "uint256"
        }
      ],
      "name": "TokenSold",
      "type": "event"
    },
    {
      "inputs": [],
      "name": "getSwanWallet",
      "outputs": [
        {
          "internalType": "address",
          "name": "",
          "type": "address"
        }
      ],
      "stateMutability": "nonpayable",
      "type": "function"
    },
    {
      "inputs": [
        {
          "internalType": "address",
          "name": "tokenAddress",
          "type": "address"
        },
        {
          "internalType": "uint256",
          "name": "tokenId",
          "type": "uint256"
        },
        {
          "internalType": "uint256",
          "name": "price",
          "type": "uint256"
        }
      ],
      "name": "createTokenListing",
      "outputs": [],
      "stateMutability": "nonpayable",
      "type": "function"
    },
    {
      "inputs": [
        {
          "internalType": "uint256",
          "name": "listingId",
          "type": "uint256"
        }
      ],
      "name": "buyToken",
      "outputs": [],
      "stateMutability": "payable",
      "type": "function"
    },
    {
      "inputs": [
        {
          "internalType": "uint256",
          "name": "listingId",
          "type": "uint256"
        }
      ],
      "name": "cancelListing",
      "outputs": [],
      "stateMutability": "nonpayable",
      "type": "function"
    }
  ],
  "bytecode": "0x608060405234801561001057600080fd5b50600160028190555033600160006101000a81548173ffffffffffffffffffffffffffffffffffffffff021916908373ffffffffffffffffffffffffffffffffffffffff16021790555061173d806100696000396000f3fe60806040526004361061005c576000357c0100000000000000000000000000000000000000000000000000000000900480632d296bf114610061578063305a67a81461007d5780634e7acf8d146100a65780635213b126146100d1575b600080fd5b61007b6004803603810190610076919061106e565b6100fa565b005b34801561008957600080fd5b506100a4600480360381019061009f919061106e565b610741565b005b3480156100b257600080fd5b506100bb610b8a565b6040516100c891906110dc565b60405180910390f35b3480156100dd57600080fd5b506100f860048036038101906100f39190611123565b610bb4565b005b60007fffffffffffffffffffffffffffffffffffffffffffffffffffffffffffffffff905060005b6000805490508110156101d557826000828154811061014457610143611176565b5b9060005260206000209060050201600301541480156101b9575060006002811115610172576101716111a5565b5b6000828154811061018657610185611176565b5b906000526020600020906005020160040160149054906101000a900460ff1660028111156101b7576101b66111a5565b5b145b156101c2578091505b80806101cd90611203565b915050610122565b507fffffffffffffffffffffffffffffffffffffffffffffffffffffffffffffffff8113610238576040517f08c379a000000000000000000000000000000000000000000000000000000000815260040161022f906112a8565b60405180910390fd5b3373ffffffffffffffffffffffffffffffffffffffff166000828154811061026357610262611176565b5b906000526020600020906005020160040160009054906101000a900473ffffffffffffffffffffffffffffffffffffffff1673ffffffffffffffffffffffffffffffffffffffff16036102eb576040517f08c379a00000000000000000000000000000000000000000000000000000000081526004016102e290611314565b60405180910390fd5b3460008281548110610300576102ff611176565b5b90600052602060002090600502016000015414610352576040517f08c379a000000000000000000000000000000000000000000000000000000000815260040161034990611380565b60405180910390fd5b60016000828154811061036857610367611176565b5b906000526020600020906005020160040160146101000a81548160ff0219169083600281111561039b5761039a6111a5565b5b0217905550600081815481106103b4576103b3611176565b5b906000526020600020906005020160010160009054906101000a900473ffffffffffffffffffffffffffffffffffffffff1673ffffffffffffffffffffffffffffffffffffffff166323b872dd30336000858154811061041757610416611176565b5b9060005260206000209060050201600201546040518463ffffffff167c0100000000000000000000000000000000000000000000000000000000028152600401610463939291906113af565b600060405180830381600087803b15801561047d57600080fd5b505af1158015610491573d6000803e3d6000fd5b50505050600060646002600084815481106104af576104ae611176565b5b9060005260206000209060050201600001546104cb91906113e6565b6104d5919061146f565b9050600081600084815481106104ee576104ed611176565b5b90600052602060002090600502016000015461050a91906114a0565b9050600083815481106105205761051f611176565b5b906000526020600020906005020160040160009054906101000a900473ffffffffffffffffffffffffffffffffffffffff1673ffffffffffffffffffffffffffffffffffffffff166108fc829081150290604051600060405180830381858888f19350505050158015610597573d6000803e3d6000fd5b50600160009054906101000a900473ffffffffffffffffffffffffffffffffffffffff1673ffffffffffffffffffffffffffffffffffffffff166108fc839081150290604051600060405180830381858888f19350505050158015610600573d6000803e3d6000fd5b507f8257f0470c8769f4b3919b39cdf2ccbff753aaecbaeed07ad5ce4844fe722f1b6000848154811061063657610635611176565b5b906000526020600020906005020160040160009054906101000a900473ffffffffffffffffffffffffffffffffffffffff16336000868154811061067d5761067c611176565b5b906000526020600020906005020160010160009054906101000a900473ffffffffffffffffffffffffffffffffffffffff16600087815481106106c3576106c2611176565b5b906000526020600020906005020160020154600088815481106106e9576106e8611176565b5b9060005260206000209060050201600001546000898154811061070f5761070e611176565b5b906000526020600020906005020160030154604051610733969594939291906114d4565b60405180910390a150505050565b60007fffffffffffffffffffffffffffffffffffffffffffffffffffffffffffffffff905060005b60008054905081101561081c57826000828154811061078b5761078a611176565b5b9060005260206000209060050201600301541480156108005750600060028111156107b9576107b86111a5565b5b600082815481106107cd576107cc611176565b5b906000526020600020906005020160040160149054906101000a900460ff1660028111156107fe576107fd6111a5565b5b145b15610809578091505b808061081490611203565b915050610769565b507fffffffffffffffffffffffffffffffffffffffffffffffffffffffffffffffff811361087f576040517f08c379a0000000000000000000000000000000000000000000000000000000008152600401610876906112a8565b60405180910390fd5b3373ffffffffffffffffffffffffffffffffffffffff16600082815481106108aa576108a9611176565b5b906000526020600020906005020160040160009054906101000a900473ffffffffffffffffffffffffffffffffffffffff1673ffffffffffffffffffffffffffffffffffffffff1614610932576040517f08c379a0000000000000000000000000000000000000000000000000000000008152600401610929906115a7565b60405180910390fd5b60026000828154811061094857610947611176565b5b906000526020600020906005020160040160146101000a81548160ff0219169083600281111561097b5761097a6111a5565b5b02179055506000818154811061099457610993611176565b5b906000526020600020906005020160010160009054906101000a900473ffffffffffffffffffffffffffffffffffffffff1673ffffffffffffffffffffffffffffffffffffffff166323b872dd3033600085815481106109f7576109f6611176565b5b9060005260206000209060050201600201546040518463ffffffff167c0100000000000000000000000000000000000000000000000000000000028152600401610a43939291906113af565b600060405180830381600087803b158015610a5d57600080fd5b505af1158015610a71573d6000803e3d6000fd5b505050507f5f130ce6e1bd90d4560fdc866bc55d1c7bb8c3c1ce5da1881810df3ca22ff69860008281548110610aaa57610aa9611176565b5b906000526020600020906005020160040160009054906101000a900473ffffffffffffffffffffffffffffffffffffffff1660008381548110610af057610aef611176565b5b906000526020600020906005020160010160009054906101000a900473ffffffffffffffffffffffffffffffffffffffff1660008481548110610b3657610b35611176565b5b90600052602060002090600502016002015460008581548110610b5c57610b5b611176565b5b906000526020600020906005020160030154604051610b7e94939291906115c7565b60405180910390a15050565b6000600160009054906101000a900473ffffffffffffffffffffffffffffffffffffffff16905090565b8273ffffffffffffffffffffffffffffffffffffffff166323b872dd3330856040518463ffffffff167c0100000000000000000000000000000000000000000000000000000000028152600401610c0d939291906113af565b600060405180830381600087803b158015610c2757600080fd5b505af1158015610c3b573d6000803e3d6000fd5b5050505060007fffffffffffffffffffffffffffffffffffffffffffffffffffffffffffffffff905060005b600080549050811015610de2578473ffffffffffffffffffffffffffffffffffffffff1660008281548110610c9f57610c9e611176565b5b906000526020600020906005020160010160009054906101000a900473ffffffffffffffffffffffffffffffffffffffff1673ffffffffffffffffffffffffffffffffffffffff16148015610d64575060008181548110610d0357610d02611176565b5b906000526020600020906005020160020154604051602001610d25919061162d565b6040516020818303038152906040528051906020012084604051602001610d4c919061162d565b60405160208183030381529060405280519060200120145b8015610dc6575060006002811115610d7f57610d7e6111a5565b5b60008281548110610d9357610d92611176565b5b906000526020600020906005020160040160149054906101000a900460ff166002811115610dc457610dc36111a5565b5b145b15610dcf578091505b8080610dda90611203565b915050610c67565b507fffffffffffffffffffffffffffffffffffffffffffffffffffffffffffffffff8114610e45576040517f08c379a0000000000000000000000000000000000000000000000000000000008152600401610e3c90611694565b60405180910390fd5b60026000815480929190610e5890611203565b919050555060006040518060c001604052808481526020018673ffffffffffffffffffffffffffffffffffffffff16815260200185815260200160025481526020013373ffffffffffffffffffffffffffffffffffffffff16815260200160006002811115610eca57610ec96111a5565b5b815250905060008190806001815401808255809150506001900390600052602060002090600502016000909190919091506000820151816000015560208201518160010160006101000a81548173ffffffffffffffffffffffffffffffffffffffff021916908373ffffffffffffffffffffffffffffffffffffffff160217905550604082015181600201556060820151816003015560808201518160040160006101000a81548173ffffffffffffffffffffffffffffffffffffffff021916908373ffffffffffffffffffffffffffffffffffffffff16021790555060a08201518160040160146101000a81548160ff02191690836002811115610fd257610fd16111a5565b5b021790555050507f7d5e9f7d0176f6d89418aff63d46085abc93fe2052915f849d66d8f7d168bb3c816080015182602001518360400151846000015185606001516040516110249594939291906116b4565b60405180910390a15050505050565b600080fd5b6000819050919050565b61104b81611038565b811461105657600080fd5b50565b60008135905061106881611042565b92915050565b60006020828403121561108457611083611033565b5b600061109284828501611059565b91505092915050565b600073ffffffffffffffffffffffffffffffffffffffff82169050919050565b60006110c68261109b565b9050919050565b6110d6816110bb565b82525050565b60006020820190506110f160008301846110cd565b92915050565b611100816110bb565b811461110b57600080fd5b50565b60008135905061111d816110f7565b92915050565b60008060006060848603121561113c5761113b611033565b5b600061114a8682870161110e565b935050602061115b86828701611059565b925050604061116c86828701611059565b9150509250925092565b7f4e487b7100000000000000000000000000000000000000000000000000000000600052603260045260246000fd5b7f4e487b7100000000000000000000000000000000000000000000000000000000600052602160045260246000fd5b7f4e487b7100000000000000000000000000000000000000000000000000000000600052601160045260246000fd5b600061120e82611038565b91507fffffffffffffffffffffffffffffffffffffffffffffffffffffffffffffffff82036112405761123f6111d4565b5b600182019050919050565b600082825260208201905092915050565b7f4c697374696e6720696420646f6573206e6f7420657869737400000000000000600082015250565b600061129260198361124b565b915061129d8261125c565b602082019050919050565b600060208201905081810360008301526112c181611285565b9050919050565b7f596f752063616e27742062757920796f7572206f776e20746f6b656e00000000600082015250565b60006112fe601c8361124b565b9150611309826112c8565b602082019050919050565b6000602082019050818103600083015261132d816112f1565b9050919050565b7f507269636520646f65736e2774206d6174636800000000000000000000000000600082015250565b600061136a60138361124b565b915061137582611334565b602082019050919050565b600060208201905081810360008301526113998161135d565b9050919050565b6113a981611038565b82525050565b60006060820190506113c460008301866110cd565b6113d160208301856110cd565b6113de60408301846113a0565b949350505050565b60006113f182611038565b91506113fc83611038565b9250817fffffffffffffffffffffffffffffffffffffffffffffffffffffffffffffffff0483118215151615611435576114346111d4565b5b828202905092915050565b7f4e487b7100000000000000000000000000000000000000000000000000000000600052601260045260246000fd5b600061147a82611038565b915061148583611038565b92508261149557611494611440565b5b828204905092915050565b60006114ab82611038565b91506114b683611038565b9250828210156114c9576114c86111d4565b5b828203905092915050565b600060c0820190506114e960008301896110cd565b6114f660208301886110cd565b61150360408301876110cd565b61151060608301866113a0565b61151d60808301856113a0565b61152a60a08301846113a0565b979650505050505050565b7f596f752063616e206f6e6c792063616e63656c20796f7572206f776e206c697360008201527f74696e6773000000000000000000000000000000000000000000000000000000602082015250565b600061159160258361124b565b915061159c82611535565b604082019050919050565b600060208201905081810360008301526115c081611584565b9050919050565b60006080820190506115dc60008301876110cd565b6115e960208301866110cd565b6115f660408301856113a0565b61160360608301846113a0565b95945050505050565b6000819050919050565b61162761162282611038565b61160c565b82525050565b60006116398284611616565b60208201915081905092915050565b7f546f6b656e20697320616c7265616479206c6973746564000000000000000000600082015250565b600061167e60178361124b565b915061168982611648565b602082019050919050565b600060208201905081810360008301526116ad81611671565b9050919050565b600060a0820190506116c960008301886110cd565b6116d660208301876110cd565b6116e360408301866113a0565b6116f060608301856113a0565b6116fd60808301846113a0565b969550505050505056fea2646970667358221220e1e716d527cf9b664141be2c5ab5a534987abdcc13a12473a771d3fde9ac9fb564736f6c634300080d0033",
  "immutableReferences": {},
  "source": "// SPDX-License-Identifier: MIT\r\npragma solidity ^0.8.13;\r\n\r\nimport \"./erc-721-token.sol\";\r\n\r\ncontract Swan {\r\n\r\n    enum ListingStatus {LISTED, SOLD, CANCELLED}\r\n\r\n    struct TokenListing {\r\n        uint price;\r\n        address tokenAddress;\r\n        uint tokenId;\r\n        uint listingId;\r\n        address seller;\r\n        ListingStatus status;\r\n    }\r\n\r\n    event TokenListed(\r\n        address seller,\r\n        address tokenAddress,\r\n        uint tokenId,\r\n        uint price,\r\n        uint listingId\r\n    );\r\n\r\n    event TokenSold(\r\n        address seller,\r\n        address buyer,\r\n        address tokenAddress,\r\n        uint tokenId,\r\n        uint price,\r\n        uint listingId\r\n    );\r\n\r\n    event ListingCancelled(\r\n        address seller,\r\n        address tokenAddress,\r\n        uint tokenId,\r\n        uint listingId\r\n    );\r\n\r\n\r\n    TokenListing[] private listings;\r\n    address private swanWallet;\r\n    uint idCounter;\r\n\r\n    constructor() {\r\n        idCounter = 1;\r\n        swanWallet = msg.sender;\r\n    }\r\n\r\n    function getSwanWallet() public returns(address) {\r\n        return swanWallet;\r\n    }\r\n\r\n    function createTokenListing(address tokenAddress, uint tokenId, uint price) public {\r\n        ERC721Token(tokenAddress).transferFrom(msg.sender, address(this), tokenId);\r\n\r\n        int foundAt = -1;\r\n        for (uint i = 0; i < listings.length; i++) {\r\n            if (listings[i].tokenAddress == tokenAddress\r\n            && keccak256(abi.encodePacked(tokenId)) == keccak256(abi.encodePacked(listings[i].tokenId))\r\n                && listings[i].status == ListingStatus.LISTED) {\r\n                foundAt = int(i);\r\n            }\r\n        }\r\n        require(foundAt == - 1, \"Token is already listed\");\r\n        idCounter++;\r\n        TokenListing memory newListing = TokenListing(price, tokenAddress, tokenId, idCounter, msg.sender, ListingStatus.LISTED);\r\n        listings.push(newListing);\r\n\r\n        emit TokenListed(newListing.seller, newListing.tokenAddress, newListing.tokenId, newListing.price, newListing.listingId);\r\n    }\r\n\r\n    function buyToken(uint listingId) public payable {\r\n        int foundAt = -1;\r\n        for (uint i = 0; i < listings.length; i++) {\r\n            if (listings[i].listingId == listingId && listings[i].status == ListingStatus.LISTED) {\r\n                foundAt = int(i);\r\n            }\r\n        }\r\n        require(foundAt > -1, \"Listing id does not exist\");\r\n        require(listings[uint(foundAt)].seller != msg.sender, \"You can't buy your own token\");\r\n        require(listings[uint(foundAt)].price == msg.value, \"Price doesn't match\");\r\n\r\n        listings[uint(foundAt)].status = ListingStatus.SOLD;\r\n\r\n        ERC721Token(listings[uint(foundAt)].tokenAddress).transferFrom(address(this), msg.sender, listings[uint(foundAt)].tokenId);\r\n\r\n        uint serviceFee = ((listings[uint(foundAt)].price * 2) / 100);\r\n        uint sellerFee = listings[uint(foundAt)].price - serviceFee;\r\n        payable(listings[uint(foundAt)].seller).transfer(sellerFee);\r\n        payable(swanWallet).transfer(serviceFee);\r\n        emit TokenSold(listings[uint(foundAt)].seller, msg.sender, listings[uint(foundAt)].tokenAddress, listings[uint(foundAt)].tokenId, listings[uint(foundAt)].price, listings[uint(foundAt)].listingId);\r\n    }\r\n\r\n    function cancelListing(uint listingId) public {\r\n        int foundAt = -1;\r\n        for (uint i = 0; i < listings.length; i++) {\r\n            if (listings[i].listingId == listingId && listings[i].status == ListingStatus.LISTED) {\r\n                foundAt = int(i);\r\n            }\r\n        }\r\n        require(foundAt > -1, \"Listing id does not exist\");\r\n        require(listings[uint(foundAt)].seller == msg.sender, \"You can only cancel your own listings\");\r\n\r\n        listings[uint(foundAt)].status = ListingStatus.CANCELLED;\r\n        ERC721Token(listings[uint(foundAt)].tokenAddress).transferFrom(address(this), msg.sender, listings[uint(foundAt)].tokenId);\r\n\r\n        emit ListingCancelled(listings[uint(foundAt)].seller, listings[uint(foundAt)].tokenAddress, listings[uint(foundAt)].tokenId, listings[uint(foundAt)].listingId);\r\n    }\r\n}",
  "sourcePath": "E:\\Projects\\nft-game\\apps\\solidity-contracts\\contracts\\swan.sol",
  "compiler": {
    "name": "solc",
    "version": "0.8.13+commit.abaa5c0e.Emscripten.clang"
  },
  "schemaVersion": "3.4.7",
  "updatedAt": "2022-04-15T10:23:02.001Z",
  "devdoc": {
    "kind": "dev",
    "methods": {},
    "version": 1
  },
  "userdoc": {
    "kind": "user",
    "methods": {},
    "version": 1
  }
}